[
  {
    "id": 0,
    "description": "Try poseidon hash with 2 member",
    "arity": 4,
    "chainIdSequencer": 1001,
    "defaultChainId": 1000,
    "sequencerAddress": "0x617b3a3528F9cDd6630fd3301B9c8911F7Bf063D",
    "sequencerPvtKey": "0x28b2b0318721be8c8339199172cd7cc8f5e273800a35616ec893083a4b32c02e",
    "genesis": {
      "accounts": [
        {
          "address": "0x617b3a3528F9cDd6630fd3301B9c8911F7Bf063D",
          "pvtKey": "0x28b2b0318721be8c8339199172cd7cc8f5e273800a35616ec893083a4b32c02e",
          "balance": "100000000000000000000",
          "nonce": "0"
        },
        {
          "address": "0x4d5Cf5032B2a844602278b01199ED191A86c93ff",
          "pvtKey": "0x4d27a600dce8c29b7bd080e29a26972377dbb04d7a27d919adbb602bf13cfd23",
          "balance": "200000000000000000000",
          "nonce": "0"
        }
      ],
      "contracts": [
        {
          "contractName": "Poseidon",
          "paramsDeploy": {}
        },
        {
          "contractName": "Token",
          "paramsDeploy": {
            "types": [
              "string"
            ],
            "values": [
              "ZKCOINA"
            ]
          }
        },
        {
          "contractName": "Token",
          "paramsDeploy": {
            "types": [
              "string"
            ],
            "values": [
              "ZKCOINB"
            ]
          }
        }
      ]
    },
    "txs": [
      {
        "from": "0x617b3a3528F9cDd6630fd3301B9c8911F7Bf063D",
        "to": "contract",
        "nonce": "0",
        "value": "0",
        "contractAddress": "0x1275fbb540c8efc58b812ba83b0d0b8b9917ae98",
        "abiName": "Poseidon",
        "function": "hashmultiple",
        "params": [
          [
            "1",
            "1"
          ],
          "33"
        ],
        "gasLimit": 20000000,
        "gasPrice": "10000000",
        "chainId": 1000,
        "execTime": 10
      }
    ],
    "timestamp": 1944498031,
    "chainID": 1000,
    "globalExitRoot": "0x090bcaf734c4f06c93954a827b45a6e8c67b8e0fd1e0a35a1c5982d6961828f9",
    "batchL2Data": "0xf88b80839896808401312d00941275fbb540c8efc58b812ba83b0d0b8b9917ae9880b864627ce76e0000000000000000000000000000000000000000000000000000000000000001000000000000000000000000000000000000000000000000000000000000000100000000000000000000000000000000000000000000000000000000000000218203e880807a0df5a149be9d659941255731dc7d5abb6123c0b863148bc04af48565d00f1c404cd39cdf62f6935f8421621d4944d063b595f54b8d2675d144db02595607bb1b",
    "newLocalExitRoot": "0x0000000000000000000000000000000000000000000000000000000000000000",
    "expectedOldRoot": "0x7abf07c1ceb42eea309078852dd5d7e600ffbd1333ca4bfeec6ec23b73e17679",
    "expectedNewRoot": "0x3823da97f183c2d96e6ba950da2aca33d2377fac6e16ca09221af9a2c358e686",
    "expectedNewLeafs": {
      "0x617b3a3528F9cDd6630fd3301B9c8911F7Bf063D": {
        "balance": "100000000000000000000",
        "nonce": "1",
        "storage": null,
        "hashBytecode": "0x0000000000000000000000000000000000000000000000000000000000000000",
        "bytecodeLength": 0
      },
      "0x4d5Cf5032B2a844602278b01199ED191A86c93ff": {
        "balance": "200000000000000000000",
        "nonce": "0",
        "storage": null,
        "hashBytecode": "0x0000000000000000000000000000000000000000000000000000000000000000",
        "bytecodeLength": 0
      },
      "0x1275fbb540c8efc58b812ba83b0d0b8b9917ae98": {
        "balance": "0",
        "nonce": "1",
        "storage": {},
        "hashBytecode": "0x5403e4acd235b9ffae2dfc43187634c8339b4aa6cb01faa18c701f42b43fc92e",
        "bytecodeLength": 8521
      },
      "0x85e844b762a271022b692cf99ce5c59ba0650ac8": {
        "balance": "0",
        "nonce": "1",
        "storage": {
          "0x0000000000000000000000000000000000000000000000000000000000000005": "0x12",
          "0x0000000000000000000000000000000000000000000000000000000000000007": "0x617b3a3528f9cdd6630fd3301b9c8911f7bf063d00",
          "0x0000000000000000000000000000000000000000000000000000000000000003": "0x5a4b434f494e410000000000000000000000000000000000000000000000000e",
          "0x0000000000000000000000000000000000000000000000000000000000000004": "0x5a4b434f494e410000000000000000000000000000000000000000000000000e"
        },
        "hashBytecode": "0x2ea61edd30278c68e6b58d8c18cdf1b2993dccc48226bedc0548aa494a08e89d",
        "bytecodeLength": 7938
      },
      "0x13db4b51c5174ee2366e878a367aa1d426970ade": {
        "balance": "0",
        "nonce": "1",
        "storage": {
          "0x0000000000000000000000000000000000000000000000000000000000000005": "0x12",
          "0x0000000000000000000000000000000000000000000000000000000000000007": "0x617b3a3528f9cdd6630fd3301b9c8911f7bf063d00",
          "0x0000000000000000000000000000000000000000000000000000000000000003": "0x5a4b434f494e420000000000000000000000000000000000000000000000000e",
          "0x0000000000000000000000000000000000000000000000000000000000000004": "0x5a4b434f494e420000000000000000000000000000000000000000000000000e"
        },
        "hashBytecode": "0x2ea61edd30278c68e6b58d8c18cdf1b2993dccc48226bedc0548aa494a08e89d",
        "bytecodeLength": 7938
      }
    },
    "batchHashData": "0xe1db19aa8a07435cb6d16b0b6195ecad05e2c5cfb4fec1336b5be27aff3ea184",
    "oldAccInputHash": "0x0000000000000000000000000000000000000000000000000000000000000000"
  }
]